{
  "contractName": "Adder",
  "abi": [
    {
      "inputs": [
        {
          "internalType": "uint256",
          "name": "nb1",
          "type": "uint256"
        },
        {
          "internalType": "uint256",
          "name": "nb2",
          "type": "uint256"
        }
      ],
      "name": "add",
      "outputs": [
        {
          "internalType": "uint256",
          "name": "",
          "type": "uint256"
        }
      ],
      "stateMutability": "pure",
      "type": "function"
    }
  ],
  "bytecode": "0x608060405234801561001057600080fd5b5060b98061001f6000396000f3fe6080604052348015600f57600080fd5b506004361060285760003560e01c8063771602f714602d575b600080fd5b606060048036036040811015604157600080fd5b8101908080359060200190929190803590602001909291905050506076565b6040518082815260200191505060405180910390f35b600081830190509291505056fea264697066735822122099ae8a79f88fadefcd9f4d0651fa95bc40543ee0f1562b495b2c8d674262528a64736f6c634300060c0033",
  "immutableReferences": {},
  "source": "// SPDX-License-Identifier: MIT\npragma solidity ^0.6.0;\ncontract Adder {\n    function add(uint256 nb1, uint256 nb2) public pure returns (uint256) {\n        return nb1 + nb2;\n    }\n}",
  "sourcePath": "/home/hephka/EthersJS/Cours/Calculator/contracts/Adder.sol",
  "compiler": {
    "name": "solc",
    "version": "0.6.12+commit.27d51765.Linux.g++"
  },
  "schemaVersion": "3.3.1",
  "updatedAt": "2020-10-28T15:08:15.366Z",
  "devdoc": {
    "kind": "dev",
    "methods": {},
    "version": 1
  },
  "userdoc": {
    "kind": "user",
    "methods": {},
    "version": 1
  }
}